:020000040800F2
:100000000000012059020008A9020008A902000806
:10001000A9020008A9020008A902000800000000C7
:10002000000000000000000000000000A90200081D
:10003000A902000800000000A9020008A9020008A7
:10004000A9020008A9020008A9020008A9020008E4
:10005000A9020008A9020008A9020008A9020008D4
:10006000A9020008A9020008A9020008A9020008C4
:10007000A9020008A9020008A9020008A9020008B4
:10008000A9020008A9020008A90200080000000057
:10009000000000000000000000000000A9020008AD
:1000A000A9020008A9020008A9020008A902000884
:1000B000A9020008A9020008A9020008A902000874
:1000C000A9020008A9020008A9020008A902000864
:1000D000A9020008A9020008A90200080000000007
:1000E000A9020008A9020008A902000800000000F7
:1000F000000000000000000000000000A90200084D
:1001000000000000A9020008A9020008A9020008D6
:1001100000000000000000000000000000000000DF
:10012000A9020008A9020008A9020008A902000803
:10013000A90200080000000000000000000000000C
:10014000000000000000000000000000A9020008FC
:10015000A9020008A9020008A9020008A9020008D3
:10016000A9020008A9020008000000000000000029
:10017000000000000000000000000000000000007F
:1001800000000000A90200080000000000000000BC
:04019000A9020008B8
:1001940010B5054C237833B9044B13B10448AFF3BD
:1001A40000800123237010BD000000200000000027
:1001B4001009000808B5034B1BB103490348AFF30A
:1001C400008008BD000000000400002010090008A1
:1001D40080B582B000AF00F0BBF9124B1B78184613
:1001E40000F0E4F900237B6002E07B6801337B606C
:1001F4007B680D4A9342F8DD0A4B1B780133DAB26F
:10020400084B1A70074B1A78084BA3FB0213D90842
:100214000B469B000B445B00D31ADAB2014B1A70F5
:10022400DBE700BF1C0000203F420F00CDCCCCCC4C
:1002340080B400AF064BD3F88830054A43F470030A
:10024400C2F8883000BFBD465DF8047B704700BF2C
:1002540000ED00E0DFF834D00D480E490E4A0023CB
:1002640002E0D458C4500433C4188C42F9D30B4A66
:100274000B4C002301E013600432A242FBD3FFF7CE
:10028400D7FF00F01FFBFFF7A3FF7047000001201A
:1002940000000020000000203009000800000020B9
:1002A40020000020FEE7000080B485B000AFB960F4
:1002B4007A603B600346FB73FB7B412B02D0422BED
:1002C40064D0C7E0664B1B6B654A43F001031363BC
:1002D4007B68032B3BD801A252F823F0F1020008FB
:1002E4000B030008230300083B0300085D4B1B6855
:1002F400BA685200032101FA02F2D2431146594A64
:100304000B40136023E0574B1B68BA68520001216D
:1003140001FA02F21146534A0B43136017E0514BA2
:100324001B68BA685200022101FA02F211464D4AD2
:100334000B4313600BE04B4B1B68BA68520003215C
:1003440001FA02F21146474A0B43136000BF3B68AF
:10035400002B03D03B68012B0CD07BE0414B5B6846
:100364000121BA6801FA02F2D24311463D4A0B4018
:1003740053600AE03B4B5B680121BA6801FA02F260
:100384001146384A0B43536000BF63E0344B1B6B88
:10039400334A43F0020313637B68032B3BD801A267
:1003A40052F823F0B9030008D3030008EB03000854
:1003B400030400082C4B1B68BA685200032101FA9D
:1003C40002F2D2431146284A0B40136023E0264B25
:1003D4001B68BA685200012101FA02F21146224A4E
:1003E4000B43136017E0204B1B68BA6852000221CC
:1003F40001FA02F211461C4A0B4313600BE01A4B3C
:100404001B68BA685200032101FA02F21146164A27
:100414000B43136000BF3B68002B03D03B68012BE8
:100424000CD016E0104B5B680121BA6801FA02F2A5
:10043400D24311460C4A0B4053600AE00A4B5B68F6
:100444000121BA6801FA02F21146074A0B435360CC
:1004540000BF00BF00BF1437BD465DF8047B704782
:1004640000380240000002400004024080B487B01B
:1004740000AF0346B9607A60FB73FB7B412B02D06B
:10048400422B2DD059E0304B1B68BA68520003212F
:1004940001FA02F21A40BB685B0022FA03F3012B53
:1004A4001BD17B68002B0AD0274B5B690121BA68FA
:1004B40001FA02F21146244A0B4353610AE0224B2B
:1004C4005B690121BA6801FA02F2D24311461E4A5D
:1004D4000B4053610023FB752FE00123FB752CE0D7
:1004E4001A4B1B68BA685200012101FA02F21A4041
:1004F400BB685B0022FA03F3002B1BD07B68002B44
:100504000AD0124B5B690121BA6801FA02F2114662
:100514000E4A0B4353610AE00C4B5B690121BA6834
:1005240001FA02F2D2431146084A0B4053610023F8
:10053400FB7501E00123FB7500BFFB7D18461C37EA
:10054400BD465DF8047B7047000002400004024091
:1005540080B500AF0023012200214120FFF7A4FE53
:100564000023012201214120FFF79EFE00230122E6
:1005740002214120FFF798FE00230122032141209C
:10058400FFF792FE0023012204214120FFF78CFE95
:100594000023012205214120FFF786FE00230122CA
:1005A40006214120FFF780FE00BF80BD80B582B0E8
:1005B40000AF0346FB71FB79092B00F27F8101A296
:1005C40052F823F0F10500083906000881060008F6
:1005D400C90600081107000859070008A107000808
:1005E400E907000831080008790800080122002101
:1005F4004120FFF73BFF012201214120FFF736FF95
:10060400012202214120FFF731FF01220321412071
:10061400FFF72CFF012204214120FFF727FF0122CD
:1006240005214120FFF722FF002206214120FFF788
:100634001DFF43E1002200214120FFF717FF0122A3
:1006440001214120FFF712FF012202214120FFF77F
:100654000DFF002203214120FFF708FF002204219F
:100664004120FFF703FF002205214120FFF7FEFE92
:10067400002206214120FFF7F9FE1FE1012200219B
:100684004120FFF7F3FE012201214120FFF7EEFE96
:10069400002202214120FFF7E9FE0122032141202B
:1006A400FFF7E4FE012204214120FFF7DFFE0022D0
:1006B40005214120FFF7DAFE012206214120FFF740
:1006C400D5FEFBE0012200214120FFF7CFFE0122ED
:1006D40001214120FFF7CAFE012202214120FFF738
:1006E400C5FE012203214120FFF7C0FE00220421A0
:1006F4004120FFF7BBFE002205214120FFF7B6FE93
:10070400012206214120FFF7B1FED7E0002200219B
:100714004120FFF7ABFE012201214120FFF7A6FE95
:10072400012202214120FFF7A1FE002203214120E2
:10073400FFF79CFE002204214120FFF797FE0122CF
:1007440005214120FFF792FE012206214120FFF7F7
:100754008DFEB3E0012200214120FFF787FE002235
:1007640001214120FFF782FE012202214120FFF7EF
:100774007DFE012203214120FFF778FE002204219F
:100784004120FFF773FE012205214120FFF76EFE91
:10079400012206214120FFF769FE8FE0012200219A
:1007A4004120FFF763FE002201214120FFF75EFE96
:1007B400012202214120FFF759FE01220321412099
:1007C400FFF754FE012204214120FFF74FFE0122CE
:1007D40005214120FFF74AFE012206214120FFF7AF
:1007E40045FE6BE0012200214120FFF73FFE01227C
:1007F40001214120FFF73AFE012202214120FFF7A7
:1008040035FE002203214120FFF730FE002204219F
:100814004120FFF72BFE002205214120FFF726FE91
:10082400002206214120FFF721FE47E0012200219A
:100834004120FFF71BFE012201214120FFF716FE94
:10084400012202214120FFF711FE01220321412050
:10085400FFF70CFE012204214120FFF707FE0122CD
:1008640005214120FFF702FE012206214120FFF766
:10087400FDFD23E0012200214120FFF7F7FD0122C5
:1008840001214120FFF7F2FD012202214120FFF75F
:10089400EDFD012203214120FFF7E8FD00220421A0
:1008A4004120FFF7E3FD012205214120FFF7DEFD92
:1008B400012206214120FFF7D9FD00BF00BF083700
:1008C400BD4680BD70B50D4D0D4C641BA4100026B3
:1008D400A64209D10B4D0C4C00F018F8641BA4106F
:1008E4000026A64205D170BD55F8043B9847013651
:1008F400EEE755F8043B98470136F2E7280900086B
:1009040028090008280900082C090008F8B500BFC8
:10091400F8BC08BC9E467047F8B500BFF8BC08BCDC
:040924009E46704734
:04092800B901000809
:04092C009501000829
:040000050800025994
:00000001FF
